- [ ] get transactions

call

```shell
curl -X POST --data '{"jsonrpc":"2.0","method":"eth_getBlockByNumber","params":["0x662D15", true],"id":1}'  https://kovan.infura.io/*infura_token*
```

response


```json
{
  "jsonrpc": "2.0",
  "id": 1,
  "result": {
    "author": "0x007733a1fe69cf3f2cf989f81c7b4cac1693387a",
    "difficulty": "0xfffffffffffffffffffffffffffffffe",
    "extraData": "0xd5830109058650617269747986312e32342e31826c69",
    "gasLimit": "0x79f37d",
    "gasUsed": "0x52a78",
    "hash": "0x466baf77f35a4f1e70673c12fc2adb0219013f8ce844f95886c78c18f1160d74",
    "logsBloom": "0x000000000000000000240104000000000000000000008000000000000002000001000000000000000000000001000000000000000000000000000000000400000000200008220000000000080000000000000000200400080000000000400000000000000200200000000000000008000000000000004000000100100000000000000000000080200000000100000000000000000000000040401000000002000000c0000000000000000000000000000210100002000000000000000010000000000002800000200000000000080000000200000040000000000100000060001000800000000000000000400000000000000000000000000000000000000000",
    "miner": "0x007733a1fe69cf3f2cf989f81c7b4cac1693387a",
    "number": "0x662d15",
    "parentHash": "0xf7b48668f1374628770adde8a221f663393e8aa87dd65d1ab53b93abcca8564e",
    "receiptsRoot": "0x60e54d7a94a6223c0e5e27a3a4edbabd95f3658896d2b70a24fe7dde99bead04",
    "sealFields": [
      "0x8416b0da54",
      "0xb84153db0e932765f93b1cee65722ec87b64265ac980a496e28dcff47e8873b221be5501041217ea1c90086014a0ab818331d41315efb91ef3a7d0dc27d5a7032abc00"
    ],
    "sha3Uncles": "0x1dcc4de8dec75d7aab85b567b6ccd41ad312451b948a7413f0a142fd40d49347",
    "signature": "53db0e932765f93b1cee65722ec87b64265ac980a496e28dcff47e8873b221be5501041217ea1c90086014a0ab818331d41315efb91ef3a7d0dc27d5a7032abc00",
    "size": "0x5d7",
    "stateRoot": "0x65aa018c828a680ee1f6837b739c2b6de561c59d9b3a62d4d60bd3c41b2b8063",
    "step": "380688980",
    "timestamp": "0x5ac36950",
    "totalDifficulty": "0x63ea06000000000000000000000004853fe9c0",
    "transactions": [
      {
        "blockHash": "0x466baf77f35a4f1e70673c12fc2adb0219013f8ce844f95886c78c18f1160d74",
        "blockNumber": "0x662d15",
        "chainId": "0x2a",
        "condition": null,
        "creates": null,
        "from": "0x001d51cdc8f4b378e136642ddb95dfc4ff6a4b72",
        "gas": "0x7a120",
        "gasPrice": "0x3b9aca00",
        "hash": "0x0062bb50e3e9e74e2a22f7b0aa2a33c2a634f03b66797dec2719b1577605d35e",
        "input": "0xe6488fc9000000000000000000000000001d51cdc8f4b378e136642ddb95dfc4ff6a4b72000000000000000000000000490e0a2558bea2c2ba69e9fe74017875362f843c000000000000000000000000426c203a0a1de558fbd1c206113dbde569ee2ecd000000000000000000000000000000000000000000000000000000000000000000000000000000000000000017bb660b1f85c2345ec7d84551b657e02354a1a50000000000000000000000008ba1bd02bd12486d9d81b361285216515c4810e000000000000000000000000000f34ad48a326b406bf995e04189e42d285d57730000000000000000000000000000000000000000000000000000000000000000000000000000000000000000000000000000000000000000000000003a9fb56d0000000000000000000000000000000000000000000000001bc16d674ec800000000000000000000000000000000000000000000000000000000000000000000000000000000000000000000000000000000000000000000000000000000000000000000000000000000000000000000000000000000000000000000000000000000000000000000000000000000000000000000000000000000000000000000000000000000000000000000000000000000000000000000000000005aeaf57802000000001bc16d674ec8000000271010007000000000000000000000000000000000000000000000000000000000000000000000000000000000000000001b00000000000000000000000000000000000000000000000000000000000000000000000000000000000000000000000000000000000000000000000000000000b041434e40b9b2701f8fb3d2932f0855e41c0017853c4fb3c88da1bc7120c167000000000000000000000000000000000000000000000000000000000000000000000000000000000000000000000000000000000000000000000000000000006e2fbb7f8d0f77bb9e9ff8476ba4927571ddf516f2c0f0a0c7e68c83ef36ad0700000000000000000000000000000000000000000000000000000000000000000000000000000000000000000000000000000000000000000000000000000000",
        "nonce": "0x6d7",
        "publicKey": "0x09ba13a5fcd0f05e56f55344feeca661e9cf854e7b6c028cf96f65c7dede77591ebaae03ffd1680b58ebbfe8133edae54b462f0daf2dd92c48e75e45dfe5d16d",
        "r": "0x65592ed90c3464afd7405166f7b0201e34e39cfe844d04427eaf6dbd26c15bad",
        "raw": "0xf9038c8206d7843b9aca008307a120948075270f08026769873536e71103638fb90054bc80b90324e6488fc9000000000000000000000000001d51cdc8f4b378e136642ddb95dfc4ff6a4b72000000000000000000000000490e0a2558bea2c2ba69e9fe74017875362f843c000000000000000000000000426c203a0a1de558fbd1c206113dbde569ee2ecd000000000000000000000000000000000000000000000000000000000000000000000000000000000000000017bb660b1f85c2345ec7d84551b657e02354a1a50000000000000000000000008ba1bd02bd12486d9d81b361285216515c4810e000000000000000000000000000f34ad48a326b406bf995e04189e42d285d57730000000000000000000000000000000000000000000000000000000000000000000000000000000000000000000000000000000000000000000000003a9fb56d0000000000000000000000000000000000000000000000001bc16d674ec800000000000000000000000000000000000000000000000000000000000000000000000000000000000000000000000000000000000000000000000000000000000000000000000000000000000000000000000000000000000000000000000000000000000000000000000000000000000000000000000000000000000000000000000000000000000000000000000000000000000000000000000000005aeaf57802000000001bc16d674ec8000000271010007000000000000000000000000000000000000000000000000000000000000000000000000000000000000000001b00000000000000000000000000000000000000000000000000000000000000000000000000000000000000000000000000000000000000000000000000000000b041434e40b9b2701f8fb3d2932f0855e41c0017853c4fb3c88da1bc7120c167000000000000000000000000000000000000000000000000000000000000000000000000000000000000000000000000000000000000000000000000000000006e2fbb7f8d0f77bb9e9ff8476ba4927571ddf516f2c0f0a0c7e68c83ef36ad070000000000000000000000000000000000000000000000000000000000000000000000000000000000000000000000000000000000000000000000000000000077a065592ed90c3464afd7405166f7b0201e34e39cfe844d04427eaf6dbd26c15bada06051495167c81da037c5b6db225eeff3f9f611c05cbcf6061d1a459983833fd6",
        "s": "0x6051495167c81da037c5b6db225eeff3f9f611c05cbcf6061d1a459983833fd6",
        "standardV": "0x0",
        "to": "0x8075270f08026769873536e71103638fb90054bc",
        "transactionIndex": "0x0",
        "v": "0x77",
        "value": "0x0"
      }
    ],
    "transactionsRoot": "0x9501eddfd22c0baf6f83a15e477e0fb1c8050887bda3f1ed64e99cfb13a84d3e",
    "uncles": []
  }
}
```

- [ ] get transaction from block


call

```shell
curl -X POST --data '{"jsonrpc":"2.0","method":"eth_getTransactionReceipt","params":["0x0062bb50e3e9e74e2a22f7b0aa2a33c2a634f03b66797dec2719b1577605d35e"],"id":1}'  https://kovan.infura.io/*infura_token*
```

resonse

```json
{
  "jsonrpc": "2.0",
  "result": {
    "blockHash": "0x466baf77f35a4f1e70673c12fc2adb0219013f8ce844f95886c78c18f1160d74",
    "blockNumber": "0x662d15",
    "contractAddress": null,
    "cumulativeGasUsed": "0x52a78",
    "gasUsed": "0x52a78",
    "logs": [
      {
        "address": "0x239e0e183402b04601372bc6b60a75ce8b7abc26",
        "blockHash": "0x466baf77f35a4f1e70673c12fc2adb0219013f8ce844f95886c78c18f1160d74",
        "blockNumber": "0x662d15",
        "data": "0x000000000000000000000000000000000000000000000000000000000000000000000000000000000000000017bb660b1f85c2345ec7d84551b657e02354a1a502000000001bc16d674ec8000000271010007000000000000000000000000000",
        "logIndex": "0x0",
        "topics": [
          "0x10919d8a6bfbd0c46213ad51d6258e42af00bbf36133aada8a058bbe4f4a9240",
          "0x53fdd7f84ba4800211c9a024ea3ba686f68caf86cbfaf4e56c70affe952c05b7",
          "0x000000000000000000000000001d51cdc8f4b378e136642ddb95dfc4ff6a4b72",
          "0x0000000000000000000000000000000000000000000000000000000000000000"
        ],
        "transactionHash": "0x0062bb50e3e9e74e2a22f7b0aa2a33c2a634f03b66797dec2719b1577605d35e",
        "transactionIndex": "0x0",
        "transactionLogIndex": "0x0",
        "type": "mined"
      },
      {
        "address": "0xac64d6ebbae5e50f0d499fc526ba66675e6dd543",
        "blockHash": "0x466baf77f35a4f1e70673c12fc2adb0219013f8ce844f95886c78c18f1160d74",
        "blockNumber": "0x662d15",
        "data": "0x",
        "logIndex": "0x1",
        "topics": [
          "0x0f6798a560793a54c3bcfe86a93cde1e73087d944c0ea20544137d4121396885",
          "0x000000000000000000000000001d51cdc8f4b378e136642ddb95dfc4ff6a4b72",
          "0x53fdd7f84ba4800211c9a024ea3ba686f68caf86cbfaf4e56c70affe952c05b7"
        ],
        "transactionHash": "0x0062bb50e3e9e74e2a22f7b0aa2a33c2a634f03b66797dec2719b1577605d35e",
        "transactionIndex": "0x0",
        "transactionLogIndex": "0x1",
        "type": "mined"
      },
      {
        "address": "0x17bb660b1f85c2345ec7d84551b657e02354a1a5",
        "blockHash": "0x466baf77f35a4f1e70673c12fc2adb0219013f8ce844f95886c78c18f1160d74",
        "blockNumber": "0x662d15",
        "data": "0x0000000000000000000000000000000000000000000000001bc16d674ec8000000000000000000000000000000000000000000000000000000000000000027100000000000000000000000000000000000000000000000000000000000000007",
        "logIndex": "0x2",
        "topics": [
          "0x2c500aaec6833a053693d8c2a18a3ed5649a4609699abaf7778c3d389cc40c05",
          "0x53fdd7f84ba4800211c9a024ea3ba686f68caf86cbfaf4e56c70affe952c05b7",
          "0x0000000000000000000000008ba1bd02bd12486d9d81b361285216515c4810e0",
          "0x0000000000000000000000000000000000000000000000000000000000000001"
        ],
        "transactionHash": "0x0062bb50e3e9e74e2a22f7b0aa2a33c2a634f03b66797dec2719b1577605d35e",
        "transactionIndex": "0x0",
        "transactionLogIndex": "0x2",
        "type": "mined"
      },
      {
        "address": "0x8ba1bd02bd12486d9d81b361285216515c4810e0",
        "blockHash": "0x466baf77f35a4f1e70673c12fc2adb0219013f8ce844f95886c78c18f1160d74",
        "blockNumber": "0x662d15",
        "data": "0x0000000000000000000000000000000000000000000000001bc16d674ec80000",
        "logIndex": "0x3",
        "topics": [
          "0xddf252ad1be2c89b69c2b068fc378daa952ba7f163c4a11628f55a4df523b3ef",
          "0x000000000000000000000000001d51cdc8f4b378e136642ddb95dfc4ff6a4b72",
          "0x000000000000000000000000426c203a0a1de558fbd1c206113dbde569ee2ecd"
        ],
        "transactionHash": "0x0062bb50e3e9e74e2a22f7b0aa2a33c2a634f03b66797dec2719b1577605d35e",
        "transactionIndex": "0x0",
        "transactionLogIndex": "0x3",
        "type": "mined"
      },
      {
        "address": "0x8075270f08026769873536e71103638fb90054bc",
        "blockHash": "0x466baf77f35a4f1e70673c12fc2adb0219013f8ce844f95886c78c18f1160d74",
        "blockNumber": "0x662d15",
        "data": "0x0000000000000000000000000000000000000000000000001bc16d674ec800000000000000000000000000008ba1bd02bd12486d9d81b361285216515c4810e000000000000000000000000000000000000000000000000000000000000000000000000000000000000000000000000000000000000000000000000000000000",
        "logIndex": "0x4",
        "topics": [
          "0x4d61b488582cd44b5157ec41d5a9cfcc0595cc347661eda1d84cc40d7e943fb3",
          "0x53fdd7f84ba4800211c9a024ea3ba686f68caf86cbfaf4e56c70affe952c05b7",
          "0x0000000000000000000000000000000000000000000000000000000000000000",
          "0x00000000000000000000000000f34ad48a326b406bf995e04189e42d285d5773"
        ],
        "transactionHash": "0x0062bb50e3e9e74e2a22f7b0aa2a33c2a634f03b66797dec2719b1577605d35e",
        "transactionIndex": "0x0",
        "transactionLogIndex": "0x4",
        "type": "mined"
      }
    ],
    "logsBloom": "0x000000000000000000240104000000000000000000008000000000000002000001000000000000000000000001000000000000000000000000000000000400000000200008220000000000080000000000000000200400080000000000400000000000000200200000000000000008000000000000004000000100100000000000000000000080200000000100000000000000000000000040401000000002000000c0000000000000000000000000000210100002000000000000000010000000000002800000200000000000080000000200000040000000000100000060001000800000000000000000400000000000000000000000000000000000000000",
    "root": null,
    "status": "0x1",
    "transactionHash": "0x0062bb50e3e9e74e2a22f7b0aa2a33c2a634f03b66797dec2719b1577605d35e",
    "transactionIndex": "0x0"
  },
  "id": 1
}
```

- [ ] detect block delections using `parentHash`
- [ ] encode erc20 token events
- [ ] if topic match ^ save user address
- [ ] maintain balances list and realtion to logs
- [ ] maintain alowance list and realtion to logs
